{
  "contractName": "chai",
  "abi": [
    {
      "inputs": [],
      "stateMutability": "nonpayable",
      "type": "constructor"
    },
    {
      "inputs": [
        {
          "internalType": "string",
          "name": "name",
          "type": "string"
        },
        {
          "internalType": "string",
          "name": "message",
          "type": "string"
        }
      ],
      "name": "buyChai",
      "outputs": [],
      "stateMutability": "payable",
      "type": "function",
      "payable": true
    },
    {
      "inputs": [],
      "name": "getMemos",
      "outputs": [
        {
          "components": [
            {
              "internalType": "string",
              "name": "name",
              "type": "string"
            },
            {
              "internalType": "string",
              "name": "message",
              "type": "string"
            },
            {
              "internalType": "uint256",
              "name": "timestamp",
              "type": "uint256"
            },
            {
              "internalType": "address",
              "name": "from",
              "type": "address"
            }
          ],
          "internalType": "struct chai.Memo[]",
          "name": "",
          "type": "tuple[]"
        }
      ],
      "stateMutability": "view",
      "type": "function",
      "constant": true
    }
  ],
  "bytecode": "0x608060405234801561001057600080fd5b50600180546001600160a01b0319163317905561065a806100326000396000f3fe6080604052600436106100295760003560e01c80636a13d8591461002e578063865c517214610043575b600080fd5b61004161003c36600461048d565b61006e565b005b34801561004f57600080fd5b50610058610205565b6040516100659190610546565b60405180910390f35b600034116100c25760405162461bcd60e51b815260206004820152601c60248201527f506c6561736520706179206d6f7265207468616e203020657468657200000000604482015260640160405180910390fd5b6001546040516001600160a01b03909116903480156108fc02916000818181858888f193505050501580156100fb573d6000803e3d6000fd5b506040805160a06020601f87018190040282018101909252608081018581526000928291908890889081908501838280828437600092019190915250505090825250604080516020601f870181900481028201810190925285815291810191908690869081908401838280828437600092018290525093855250504260208085019190915233604090940193909352508354600181018555938152819020825180519394600402909101926101b392849201906103ab565b5060208281015180516101cc92600185019201906103ab565b5060408201516002820155606090910151600390910180546001600160a01b0319166001600160a01b0390921691909117905550505050565b60606000805480602002602001604051908101604052809291908181526020016000905b828210156103a2578382906000526020600020906004020160405180608001604052908160008201805461025c906105ea565b80601f0160208091040260200160405190810160405280929190818152602001828054610288906105ea565b80156102d55780601f106102aa576101008083540402835291602001916102d5565b820191906000526020600020905b8154815290600101906020018083116102b857829003601f168201915b505050505081526020016001820180546102ee906105ea565b80601f016020809104026020016040519081016040528092919081815260200182805461031a906105ea565b80156103675780601f1061033c57610100808354040283529160200191610367565b820191906000526020600020905b81548152906001019060200180831161034a57829003601f168201915b505050918352505060028201546020808301919091526003909201546001600160a01b03166040909101529082526001929092019101610229565b50505050905090565b8280546103b7906105ea565b90600052602060002090601f0160209004810192826103d9576000855561041f565b82601f106103f257805160ff191683800117855561041f565b8280016001018555821561041f579182015b8281111561041f578251825591602001919060010190610404565b5061042b92915061042f565b5090565b5b8082111561042b5760008155600101610430565b60008083601f84011261045657600080fd5b50813567ffffffffffffffff81111561046e57600080fd5b60208301915083602082850101111561048657600080fd5b9250929050565b600080600080604085870312156104a357600080fd5b843567ffffffffffffffff808211156104bb57600080fd5b6104c788838901610444565b909650945060208701359150808211156104e057600080fd5b506104ed87828801610444565b95989497509550505050565b6000815180845260005b8181101561051f57602081850181015186830182015201610503565b81811115610531576000602083870101525b50601f01601f19169290920160200192915050565b60006020808301818452808551808352604092508286019150828160051b87010184880160005b838110156105dc57603f19898403018552815160808151818652610593828701826104f9565b915050888201518582038a8701526105ab82826104f9565b838a0151878b01526060938401516001600160a01b031693909601929092525050938601939086019060010161056d565b509098975050505050505050565b600181811c908216806105fe57607f821691505b60208210810361061e57634e487b7160e01b600052602260045260246000fd5b5091905056fea26469706673582212200af476827565117eb239d2a362ebeae46337a2fe396473225b39e0e8aecba52b64736f6c634300080d0033",
  "immutableReferences": {},
  "source": "// SPDX-License-Identifier: GPL-3.0\r\npragma solidity >=0.7.0 <0.9.0;\r\n\r\ncontract chai{\r\n\r\n    struct Memo{\r\n        string name;\r\n        string message;\r\n        uint timestamp;\r\n        address from;\r\n    }\r\n\r\n    Memo[] memos;\r\n    address payable owner; //owner is going to receive funds\r\n    constructor(){\r\n        owner = payable(msg.sender);\r\n    }\r\n\r\n    function buyChai(string calldata name,string calldata message) external payable{\r\n        require(msg.value>0,\"Please pay more than 0 ether\");\r\n        owner.transfer(msg.value);\r\n        memos.push(Memo(name,message,block.timestamp,msg.sender));\r\n    }\r\n\r\n    function getMemos() public view returns(Memo[] memory){\r\n        return memos;\r\n    }\r\n}",
  "sourcePath": "C:\\Users\\ssant\\Desktop\\teest\\contracts\\chai.sol",
  "compiler": {
    "name": "solc",
    "version": "0.8.13+commit.abaa5c0e.Emscripten.clang"
  },
  "schemaVersion": "3.4.16",
  "updatedAt": "2024-09-25T23:41:55.289Z",
  "networkType": "ethereum",
  "devdoc": {
    "kind": "dev",
    "methods": {},
    "version": 1
  },
  "userdoc": {
    "kind": "user",
    "methods": {},
    "version": 1
  }
}