{
  "contractName": "CropTracking",
  "abi": [
    {
      "inputs": [],
      "stateMutability": "nonpayable",
      "type": "constructor"
    },
    {
      "inputs": [
        {
          "internalType": "uint256",
          "name": "",
          "type": "uint256"
        }
      ],
      "name": "crops",
      "outputs": [
        {
          "internalType": "string",
          "name": "farmerName",
          "type": "string"
        },
        {
          "internalType": "string",
          "name": "cropName",
          "type": "string"
        },
        {
          "internalType": "string",
          "name": "plantationDate",
          "type": "string"
        },
        {
          "internalType": "string",
          "name": "harvestingDate",
          "type": "string"
        },
        {
          "internalType": "uint256",
          "name": "timestamp",
          "type": "uint256"
        },
        {
          "internalType": "address",
          "name": "farmerAddress",
          "type": "address"
        }
      ],
      "stateMutability": "view",
      "type": "function",
      "constant": true
    },
    {
      "inputs": [],
      "name": "owner",
      "outputs": [
        {
          "internalType": "address",
          "name": "",
          "type": "address"
        }
      ],
      "stateMutability": "view",
      "type": "function",
      "constant": true
    },
    {
      "inputs": [
        {
          "internalType": "string",
          "name": "farmerName",
          "type": "string"
        },
        {
          "internalType": "string",
          "name": "cropName",
          "type": "string"
        },
        {
          "internalType": "string",
          "name": "plantationDate",
          "type": "string"
        },
        {
          "internalType": "string",
          "name": "harvestingDate",
          "type": "string"
        }
      ],
      "name": "logCropDetails",
      "outputs": [],
      "stateMutability": "nonpayable",
      "type": "function"
    },
    {
      "inputs": [],
      "name": "getCropDetails",
      "outputs": [
        {
          "components": [
            {
              "internalType": "string",
              "name": "farmerName",
              "type": "string"
            },
            {
              "internalType": "string",
              "name": "cropName",
              "type": "string"
            },
            {
              "internalType": "string",
              "name": "plantationDate",
              "type": "string"
            },
            {
              "internalType": "string",
              "name": "harvestingDate",
              "type": "string"
            },
            {
              "internalType": "uint256",
              "name": "timestamp",
              "type": "uint256"
            },
            {
              "internalType": "address",
              "name": "farmerAddress",
              "type": "address"
            }
          ],
          "internalType": "struct CropTracking.Crop[]",
          "name": "",
          "type": "tuple[]"
        }
      ],
      "stateMutability": "view",
      "type": "function",
      "constant": true
    }
  ],
  "bytecode": "0x608060405234801561001057600080fd5b50600180546001600160a01b03191633179055610b95806100326000396000f3fe608060405234801561001057600080fd5b506004361061004c5760003560e01c8063086cc18b146100515780631b952b961461006657806370c9f1a5146100845780638da5cb5b146100a9575b600080fd5b61006461005f3660046108b1565b6100d4565b005b61006e61028f565b60405161007b91906109c2565b60405180910390f35b610097610092366004610a9b565b610559565b60405161007b96959493929190610ab4565b6001546100bc906001600160a01b031681565b6040516001600160a01b03909116815260200161007b565b6040805160e06020601f8b01819004028201810190925260c081018981526000928291908c908c9081908501838280828437600092019190915250505090825250604080516020601f8b0181900481028201810190925289815291810191908a908a9081908401838280828437600092019190915250505090825250604080516020601f890181900481028201810190925287815291810191908890889081908401838280828437600092019190915250505090825250604080516020601f8701819004810282018101909252858152918101919086908690819084018382808284376000920182905250938552505042602080850191909152336040909401939093525083546001810185559381528190208251805193946006029091019261020192849201906107cf565b50602082810151805161021a92600185019201906107cf565b50604082015180516102369160028401916020909101906107cf565b50606082015180516102529160038401916020909101906107cf565b506080820151600482015560a090910151600590910180546001600160a01b0319166001600160a01b039092169190911790555050505050505050565b60606000805480602002602001604051908101604052809291908181526020016000905b8282101561055057838290600052602060002090600602016040518060c00160405290816000820180546102e690610b25565b80601f016020809104026020016040519081016040528092919081815260200182805461031290610b25565b801561035f5780601f106103345761010080835404028352916020019161035f565b820191906000526020600020905b81548152906001019060200180831161034257829003601f168201915b5050505050815260200160018201805461037890610b25565b80601f01602080910402602001604051908101604052809291908181526020018280546103a490610b25565b80156103f15780601f106103c6576101008083540402835291602001916103f1565b820191906000526020600020905b8154815290600101906020018083116103d457829003601f168201915b5050505050815260200160028201805461040a90610b25565b80601f016020809104026020016040519081016040528092919081815260200182805461043690610b25565b80156104835780601f1061045857610100808354040283529160200191610483565b820191906000526020600020905b81548152906001019060200180831161046657829003601f168201915b5050505050815260200160038201805461049c90610b25565b80601f01602080910402602001604051908101604052809291908181526020018280546104c890610b25565b80156105155780601f106104ea57610100808354040283529160200191610515565b820191906000526020600020905b8154815290600101906020018083116104f857829003601f168201915b505050918352505060048201546020808301919091526005909201546001600160a01b031660409091015290825260019290920191016102b3565b50505050905090565b6000818154811061056957600080fd5b906000526020600020906006020160009150905080600001805461058c90610b25565b80601f01602080910402602001604051908101604052809291908181526020018280546105b890610b25565b80156106055780601f106105da57610100808354040283529160200191610605565b820191906000526020600020905b8154815290600101906020018083116105e857829003601f168201915b50505050509080600101805461061a90610b25565b80601f016020809104026020016040519081016040528092919081815260200182805461064690610b25565b80156106935780601f1061066857610100808354040283529160200191610693565b820191906000526020600020905b81548152906001019060200180831161067657829003601f168201915b5050505050908060020180546106a890610b25565b80601f01602080910402602001604051908101604052809291908181526020018280546106d490610b25565b80156107215780601f106106f657610100808354040283529160200191610721565b820191906000526020600020905b81548152906001019060200180831161070457829003601f168201915b50505050509080600301805461073690610b25565b80601f016020809104026020016040519081016040528092919081815260200182805461076290610b25565b80156107af5780601f10610784576101008083540402835291602001916107af565b820191906000526020600020905b81548152906001019060200180831161079257829003601f168201915b5050505060048301546005909301549192916001600160a01b0316905086565b8280546107db90610b25565b90600052602060002090601f0160209004810192826107fd5760008555610843565b82601f1061081657805160ff1916838001178555610843565b82800160010185558215610843579182015b82811115610843578251825591602001919060010190610828565b5061084f929150610853565b5090565b5b8082111561084f5760008155600101610854565b60008083601f84011261087a57600080fd5b50813567ffffffffffffffff81111561089257600080fd5b6020830191508360208285010111156108aa57600080fd5b9250929050565b6000806000806000806000806080898b0312156108cd57600080fd5b883567ffffffffffffffff808211156108e557600080fd5b6108f18c838d01610868565b909a50985060208b013591508082111561090a57600080fd5b6109168c838d01610868565b909850965060408b013591508082111561092f57600080fd5b61093b8c838d01610868565b909650945060608b013591508082111561095457600080fd5b506109618b828c01610868565b999c989b5096995094979396929594505050565b6000815180845260005b8181101561099b5760208185018101518683018201520161097f565b818111156109ad576000602083870101525b50601f01601f19169290920160200192915050565b60006020808301818452808551808352604092508286019150828160051b87010184880160005b83811015610a8d57603f19898403018552815160c08151818652610a0f82870182610975565b915050888201518582038a870152610a278282610975565b9150508782015185820389870152610a3f8282610975565b91505060608083015186830382880152610a598382610975565b6080858101519089015260a0948501516001600160a01b0316949097019390935250505093860193908601906001016109e9565b509098975050505050505050565b600060208284031215610aad57600080fd5b5035919050565b60c081526000610ac760c0830189610975565b8281036020840152610ad98189610975565b90508281036040840152610aed8188610975565b90508281036060840152610b018187610975565b608084019590955250506001600160a01b039190911660a090910152949350505050565b600181811c90821680610b3957607f821691505b602082108103610b5957634e487b7160e01b600052602260045260246000fd5b5091905056fea26469706673582212204899579a6a1774858c60ef84a0a77fe3d7691e2643d600b03cf161cf35f9f59a64736f6c634300080d0033",
  "immutableReferences": {},
  "source": "// SPDX-License-Identifier: GPL-3.0\r\npragma solidity >=0.7.0 <0.9.0;\r\n\r\ncontract CropTracking {\r\n\r\n    struct Crop {\r\n        string farmerName;\r\n        string cropName;\r\n        string plantationDate;\r\n        string harvestingDate;\r\n        uint timestamp;\r\n        address farmerAddress;\r\n    }\r\n\r\n    Crop[] public crops;\r\n    address public owner;\r\n\r\n    constructor() {\r\n        owner = msg.sender;\r\n    }\r\n\r\n    // Farmer logs crop details\r\n    function logCropDetails(\r\n        string calldata farmerName, \r\n        string calldata cropName, \r\n        string calldata plantationDate, \r\n        string calldata harvestingDate\r\n    ) external {\r\n        // Push the new crop details to the array\r\n        crops.push(Crop({\r\n            farmerName: farmerName,\r\n            cropName: cropName,\r\n            plantationDate: plantationDate,\r\n            harvestingDate: harvestingDate,\r\n            timestamp: block.timestamp,\r\n            farmerAddress: msg.sender\r\n        }));\r\n    }\r\n\r\n    // Customer views all crop details provided by farmers\r\n    function getCropDetails() public view returns (Crop[] memory) {\r\n        return crops;\r\n    }\r\n}\r\n",
  "sourcePath": "C:\\Users\\ssant\\Desktop\\teest\\contracts\\chai.sol",
  "compiler": {
    "name": "solc",
    "version": "0.8.13+commit.abaa5c0e.Emscripten.clang"
  },
  "schemaVersion": "3.4.16",
  "updatedAt": "2024-09-25T23:49:50.375Z",
  "networkType": "ethereum",
  "devdoc": {
    "kind": "dev",
    "methods": {},
    "version": 1
  },
  "userdoc": {
    "kind": "user",
    "methods": {},
    "version": 1
  }
}